:020000040000FA
:100000000C9462000C948A000C948A000C948A0070
:100010000C948A000C948A000C948A000C948A0038
:100020000C948A000C948A000C948A000C948A0028
:100030000C948A000C948A000C948A000C948A0018
:100040000C94C7030C9469040C9437040C941104A9
:100050000C948A000C948A000C948A000C948A00F8
:100060000C948A000C948A000000000024002700F1
:100070002A0000000000250028002B0000000000DE
:1000800023002600290004040404040404040202DA
:100090000202020203030303030301020408102007
:1000A0004080010204081020010204081020000012
:1000B0000008000201000003040700000000000027
:1000C0000000040611241FBECFEFD8E0DEBFCDBF75
:1000D00012E0A0E0B1E0E6EBFCE002C005900D927A
:1000E000A83CB107D9F723E0A8ECB2E001C01D920B
:1000F000AE36B207E1F710E0C2E6D0E004C02197C7
:10010000FE010E945306C136D107C9F70E94CA04F6
:100110000C9459060C9400005374617274696E67F4
:100120002044485431312072656164696E672E2E17
:100130002E005375636365737366756C6C792072FA
:100140006561642074656D706572617475726500B7
:100150004572726F722072656164696E67204448EF
:100160005431310002E004BD01E007B94098E8E1F4
:10017000F1E00E94C40410E072D0219A299865D061
:10018000299A0000000000002198299A1999FECFB1
:10019000199BFECF1999FECF409A49D0409837D08D
:1001A000322F35D034D0122F103021F1103510F508
:1001B000E2E3F1E00E94C4041A3108F002C0409A60
:1001C00001C04098409A33D0409831D0409A2FD007
:1001D00040981A3108F001C0409A103019F01436D6
:1001E00008F401C017E1113009F41AE2812F0E94CE
:1001F000A804C2CFE0E5F1E00E94C40445E0409AC3
:1002000016D0409814D04A95D1F717E1DBCF18E00B
:100210002227199BFECF0BD0199B03C00894221FE5
:1002200001C0220F1999FECF1A9599F70895442716
:1002300046BD44E647BD4AE045BD45B341FFFDCF5D
:10024000442745BD42E045BB08954FEF52ED62E0C3
:100250006A95F1F75A95D9F74A95C1F708954FEF86
:100260005FEF64EA6A95F1F75A95D9F74A95C1F7B5
:100270000895833081F028F4813099F08230A9F01C
:1002800008958730A9F08830C9F08430B1F48091A6
:1002900080008F7D03C0809180008F7780938000E5
:1002A000089584B58F7784BD089584B58F7DFBCF85
:1002B0008091B0008F778093B00008958091B00056
:1002C0008F7DF9CFCF93DF93E7EBF0E08491E3EA02
:1002D000F0E0D491EFE8F0E0C491CC23A1F08111DB
:1002E0000E943901EC2FF0E0EE0FFF1FE458FF4FA2
:1002F000A591B491EC91ED2381E090E009F480E0C8
:10030000DF91CF91089580E090E0FACF1F93CF93D3
:10031000DF93E7EBF0E09491E3EAF0E0D491EFE8CB
:10032000F0E0C491CC23B9F0182F992319F0892F4C
:100330000E943901EC2FF0E0EE0FFF1FEE58FF4F47
:10034000A591B4918FB7F894EC91111108C0D09594
:10035000DE23DC938FBFDF91CF911F910895DE2BB9
:10036000F8CFCF93DF9390E0FC01E656FF4F249146
:100370008A579F4FFC0184918823C9F090E0880F31
:10038000991FFC01E859FF4FA591B491FC01EE586B
:10039000FF4FC591D49161110DC09FB7F8948C9116
:1003A000209582238C938881282328839FBFDF9107
:1003B000CF910895623051F49FB7F8943C91822F09
:1003C000809583238C93E8812E2BEFCF8FB7F89401
:1003D000EC912E2B2C938FBFEACF3FB7F8948091EE
:1003E000CD029091CE02A091CF02B091D00226B55D
:1003F000A89B05C02F3F19F00196A11DB11D3FBF5D
:10040000BA2FA92F982F8827BC01CD01620F711D2B
:10041000811D911D42E0660F771F881F991F4A9525
:10042000D1F708958F929F92AF92BF92CF92DF92B1
:10043000EF92FF924B015C010E94ED016B017C0188
:100440000E94ED016C197D098E099F09683E734079
:1004500081059105A8F321E0821A9108A108B1084D
:1004600088EEC80E83E0D81EE11CF11C81149104B3
:10047000A104B10429F7FF90EF90DF90CF90BF90D7
:10048000AF909F908F900895AF92BF92CF92DF92DE
:10049000EF92FF920F931F93CF93DF936C017B0139
:1004A0008B01040F151FEB015E01AE18BF08C017CA
:1004B000D10759F06991D601ED91FC910190F0813D
:1004C000E02DC6010995892B79F7C501DF91CF9100
:1004D0001F910F91FF90EF90DF90CF90BF90AF9062
:1004E0000895FC01538D448D252F30E0842F90E03A
:1004F000821B930B541710F0CF960895019708951F
:10050000FC01918D828D981761F0A28DAE0FBF2FE7
:10051000B11D5D968C91928D9F5F9F73928F90E03D
:1005200008958FEF9FEF0895FC01918D828D9817AC
:1005300031F0828DE80FF11D858D90E008958FEFE9
:100540009FEF0895FC01918D228D892F90E0805CB2
:100550009F4F821B91098F739927089581ED92E037
:100560000E94A20221E0892B09F420E0822F089545
:1005700080E090E0892B29F00E94AE0281110C945A
:1005800000000895FC01A48DA80FB92FB11DA35A36
:10059000BF4F2C91848D90E001968F739927848FA3
:1005A000A689B7892C93A089B1898C9183708064C6
:1005B0008C93938D848D981306C00288F389E02D67
:1005C00080818F7D80830895EF92FF920F931F9318
:1005D000CF93DF93EC0181E0888F9B8D8C8D9813F6
:1005E0001AC0E889F989808185FF15C09FB7F89402
:1005F000EE89FF896083E889F9898081837080644E
:1006000080839FBF81E090E0DF91CF911F910F9198
:10061000FF90EF900895F62E0B8D10E00F5F1F4FA7
:100620000F731127E02E8C8D8E110CC00FB607FCB6
:10063000FACFE889F989808185FFF5CFCE010E9444
:10064000C202F1CFEB8DEC0FFD2FF11DE35AFF4FEE
:10065000F0829FB7F8940B8FEA89FB8980818062D2
:10066000CFCFCF93DF93EC01888D8823B9F0AA898F
:10067000BB89E889F9898C9185FD03C0808186FD5D
:100680000DC00FB607FCF7CF8C9185FFF2CF8081AC
:1006900085FFEDCFCE010E94C202E9CFDF91CF915D
:1006A0000895FC0101900020E9F73197AF01481B44
:1006B000590BBC0181ED92E00C9444028F929F9201
:1006C000AF92BF920F931F93CF93DF93CDB7DEB757
:1006D000A1970FB6F894DEBF0FBECDBF19A242306E
:1006E00008F44AE08E010F5D1F4F842E912CB12C2F
:1006F000A12CA50194010E943106E62FB901CA017F
:10070000EA30F4F4E05DD801EE938D01232B242B25
:10071000252B79F790E080E0109719F0CD010E9429
:100720005103A1960FB6F894DEBF0FBECDBFDF9187
:10073000CF911F910F91BF90AF909F908F90089590
:10074000E95CE1CFCF93DF93D0E0C0E0009719F0F0
:100750000E945103EC0184E191E00E9451038C0F4F
:100760009D1FDF91CF910895CF93DF93682F70E0A5
:1007700090E080E04AE00E945E03EC0184E191E0B9
:100780000E9451038C0F9D1FDF91CF9108951F92FE
:100790000F920FB60F9211242F933F938F939F9335
:1007A000AF93BF938091C9029091CA02A091CB02EE
:1007B000B091CC023091C80223E0230F2D3758F5B9
:1007C0000196A11DB11D2093C8028093C902909388
:1007D000CA02A093CB02B093CC028091CD0290913B
:1007E000CE02A091CF02B091D0020196A11DB11D01
:1007F0008093CD029093CE02A093CF02B093D0020B
:10080000BF91AF919F918F913F912F910F900FBE0C
:100810000F901F90189526E8230F0296A11DB11D79
:10082000D2CF1F920F920FB60F9211242F933F93A6
:100830004F935F936F937F938F939F93AF93BF93E8
:10084000EF93FF9381ED92E00E94C202FF91EF913E
:10085000BF91AF919F918F917F916F915F914F91D8
:100860003F912F910F900FBE0F901F9018951F92E0
:100870000F920FB60F9211242F938F939F93EF93A4
:10088000FF93E091E102F091E2028081E091E702C2
:10089000F091E80282FD1BC090818091EA028F5F97
:1008A0008F732091EB02821741F0E091EA02F0E0B1
:1008B000EF52FD4F958F8093EA02FF91EF919F9148
:1008C0008F912F910F900FBE0F901F9018958081E0
:1008D000F4CF1F920F920FB60F9211242F933F93D4
:1008E0004F935F936F937F938F939F93AF93BF9338
:1008F000CF93EF93FF93CEB5809101018EBD809190
:100900000001882399F080E992E00E9451036C2F46
:1009100070E090E080E040E10E945E038CEA92E0AB
:100920000E945103809101010E94B403FF91EF9155
:10093000CF91BF91AF919F918F917F916F915F9177
:100940004F913F912F910F900FBE0F901F901895D0
:10095000CF93C82F80910001882379F089EB92E032
:100960000E9451036C2F70E090E080E04AE00E940A
:100970005E0386EC92E00E94A203C0930101809185
:1009800001018EBDCF9108952091000121110C9499
:10099000A2030895789484B5826084BD84B5816093
:1009A00084BD85B5826085BD85B5816085BD80913A
:1009B0006E00816080936E001092810080918100B2
:1009C00082608093810080918100816080938100AA
:1009D000809180008160809380008091B10084606C
:1009E0008093B1008091B00081608093B0008091CD
:1009F0007A00846080937A0080917A00826080938C
:100A00007A0080917A00816080937A0080917A00E8
:100A1000806880937A001092C100E091E102F09129
:100A2000E20282E08083E091DD02F091DE0210823A
:100A3000E091DF02F091E0028FEC80831092E902F6
:100A4000E091E502F091E60286E08083E091E30226
:100A5000F091E402808180618083E091E302F09173
:100A6000E402808188608083E091E302F091E402F7
:100A7000808180688083E091E302F091E4028081CC
:100A80008F7D80838CE591E00E94A2038AE791E04C
:100A90000E94A2038EE591E00E94A20383E991E007
:100AA0000E94A2038CEA91E00E94A20388EC91E0EC
:100AB0000E94A20361E08CE00E94B10160E08BE043
:100AC0000E94B10160E08DE00E94B10160E08AE027
:100AD0000E94B10180EC8CBD85EE91E00E94A203E2
:100AE0008AEF91E00E9451038CE00E94B40385E0FC
:100AF00092E00E9451038BE00E94B40380E192E0F7
:100B00000E9451038DE00E94B4038BE192E00E94A9
:100B100051038AE00E94B40388EC91E00E94A20392
:100B200086E292E00E94A20382E492E00E94A20385
:100B300062E089E00E94B1016AE070E080E090E04C
:100B40000E9412020E946201EC0188E692E00E947B
:100B5000510383E291E0CD2B11F087E191E00E94F7
:100B6000A20361E089E00E94B10180E00E94860159
:100B700064E170E080E090E00E94120281E00E9457
:100B8000860162E089E00E94B1018FB7F894C090BD
:100B9000C902D090CA02E090CB02F090CC028FBF85
:100BA0002FB7F8948091C9029091CA02A091CB020C
:100BB000B091CC022FBF8C199D09AE09BF098436B4
:100BC0009105A105B105F0F40E946201892B41F75E
:100BD000C1E08FE792E00E94510388E491E0CC23CA
:100BE00011F088E391E00E94A2030E94B200C0E0ED
:100BF000D0E02097F1F30E94AE028823D1F30E9447
:100C00000000F7CFC0E0E5CFE1EDF2E01382128201
:100C100088EE93E0A0E0B0E084839583A683B78359
:100C200086E091E09183808385EC90E095878487CE
:100C300084EC90E09787868780EC90E0918B808BA6
:100C400081EC90E0938B828B82EC90E0958B848B8F
:100C500086EC90E0978B868B118E128E138E148EFD
:100C60000895A1E21A2EAA1BBB1BFD010DC0AA1FED
:100C7000BB1FEE1FFF1FA217B307E407F50720F005
:100C8000A21BB30BE40BF50B661F771F881F991F80
:100C90001A9469F760957095809590959B01AC01C9
:100CA000BD01CF010895EE0FFF1F0590F491E02DD7
:100CB0000994F894FFCF012A00000000E4024402E6
:100CC00071023103A202800294020D0A00484947D2
:100CD000482028676F6F6429004C4F572028706F99
:100CE000737369626C652073686F72742900446560
:100CF0007465637465642028676F6F6429004E6FA4
:100D00006E652028636865636B20776972696E671A
:100D100029000A0A3D3D3D3D3D3D3D3D3D3D3D3DBA
:100D20003D3D3D3D3D3D3D3D3D3D3D3D3D3D3D0030
:100D3000536C656570477561726469616E20536CB0
:100D40006176652076312E3000444854313120548C
:100D5000656D70657261747572652053656E736F31
:100D6000720053504920436F6D6D756E69636174F5
:100D7000696F6E20496E74657266616365002D2D22
:100D80002D2D2D2D2D2D2D2D2D2D2D2D2D2D2D2D93
:100D90002D2D2D2D2D2D2D2D2D2D00535049205035
:100DA000696E7320436F6E666967757265643A0099
:100DB0004D49534F3A2050696E20004D4F53493AE8
:100DC0002050696E200053434B3A202050696E201A
:100DD0000053533A20202050696E200053746172F2
:100DE00074696E672073656E736F722072656164DB
:100DF000696E67732E2E2E0054656D706572617476
:100E0000757265732077696C6C2062652064697304
:100E1000706C617965642062656C6F773A00444854
:100E200054313120646174612070696E2073746183
:100E300074653A2000444854313120726573706FF4
:100E40006E73653A2000535049207472616E736668
:100E500065723A20726563656976656420434D4426
:100E60003D002C2073656E742054454D503D004468
:0E0E70004854313120526561643A200043003D
:107E0000112484B714BE81FFF0D085E080938100F7
:107E100082E08093C00088E18093C10086E0809377
:107E2000C20080E18093C4008EE0C9D0259A86E02C
:107E300020E33CEF91E0309385002093840096BBD3
:107E4000B09BFECF1D9AA8958150A9F7CC24DD24C4
:107E500088248394B5E0AB2EA1E19A2EF3E0BF2EE7
:107E6000A2D0813461F49FD0082FAFD0023811F036
:107E7000013811F484E001C083E08DD089C08234E0
:107E800011F484E103C0853419F485E0A6D080C0E4
:107E9000853579F488D0E82EFF2485D0082F10E0AE
:107EA000102F00270E291F29000F111F8ED06801E7
:107EB0006FC0863521F484E090D080E0DECF843638
:107EC00009F040C070D06FD0082F6DD080E0C81688
:107ED00080E7D80618F4F601B7BEE895C0E0D1E017
:107EE00062D089930C17E1F7F0E0CF16F0E7DF06D8
:107EF00018F0F601B7BEE89568D007B600FCFDCFD4
:107F0000A601A0E0B1E02C9130E011968C91119780
:107F100090E0982F8827822B932B1296FA010C0160
:107F200087BEE89511244E5F5F4FF1E0A038BF0790
:107F300051F7F601A7BEE89507B600FCFDCF97BE46
:107F4000E89526C08437B1F42ED02DD0F82E2BD052
:107F50003CD0F601EF2C8F010F5F1F4F84911BD097
:107F6000EA94F801C1F70894C11CD11CFA94CF0C13
:107F7000D11C0EC0853739F428D08EE10CD085E9AC
:107F80000AD08FE07ACF813511F488E018D01DD067
:107F900080E101D065CF982F8091C00085FFFCCF94
:107FA0009093C60008958091C00087FFFCCF809118
:107FB000C00084FD01C0A8958091C6000895E0E648
:107FC000F0E098E1908380830895EDDF803219F02E
:107FD00088E0F5DFFFCF84E1DECF1F93182FE3DFCA
:107FE0001150E9F7F2DF1F91089580E0E8DFEE27F6
:047FF000FF270994CA
:027FFE00040479
:00000001FF
