:100000000C9453000C947B000C947B000C947B00AC
:100010000C947B000C947B000C947B000C947B0074
:100020000C947B000C947B000C947B000C947B0064
:100030000C947B000C947B000C947B000C947B0054
:100040000C94C5020C9467030C9435030C940F03B5
:100050000C947B000C947B000C947B000C947B0034
:100060000C947B000C947B0000000000250028000D
:100070002B0000000000240027002A0004040404D0
:100080000404040402020202020203030303030342
:10009000010204081020408001020408102001021F
:1000A00004081020A30411241FBECFEFD8E0DEBF48
:1000B000CDBF12E0A0E0B1E0E4EFF9E002C00590AE
:1000C0000D92AC35B107D9F723E0ACE5B2E001C041
:1000D0001D92A230B207E1F710E0C3E5D0E004C002
:1000E0002197FE010E94F204C235D107C9F70E9490
:1000F000C8030C94F8040C94000053746172746982
:100100006E672044485431312072656164696E67BE
:100110002E2E2E005375636365737366756C6C7950
:1001200020726561642074656D70657261747572AA
:1001300065004572726F722072656164696E672036
:1001400044485431310001E007B94098EAEFF0E04B
:100150000E94C20310E05BD0219A29984ED0299AC0
:1001600021981999FECF199BFECF1999FECF27D060
:1001700026D025D0122F23D022D0E4E1F1E00E9436
:10018000C2031A3108F002C0409A01C04098409A58
:1001900026D0409824D0409A22D040981A3108F0B6
:1001A00001C0409A103019F0143608F401C017E16C
:1001B000113009F41AE2812F0E94A603CCCF18E077
:1001C0002227199BFECF0BD0199B03C00894221F36
:1001D00001C0220F1999FECF1A9599F70895772734
:1001E00076BD74E677BD7AE075BD75B371FFFDCF5E
:1001F000772775BD72E075BB08954FEF52ED62E051
:100200006A95F1F75A95D9F74A95C1F708954FEFD6
:100210005FEF64EA6A95F1F75A95D9F74A95C1F705
:100220000895CF93DF9390E0FC01E057FF4F2491B6
:1002300084589F4FFC0184918823D1F090E0880F6F
:10024000991FFC01EE58FF4FA591B491FC01E859AC
:10025000FF4FC591D49161110EC09FB7F8948C9156
:10026000E22FE0958E238C932881E223E8839FBFC1
:10027000DF91CF9108958FB7F894EC91E22BEC9336
:100280008FBFF6CFAF92BF92CF92DF92EF92FF92E5
:100290000F931F93CF93DF936C017B018B01040FAE
:1002A000151FEB015E01AE18BF08C017D10759F04A
:1002B0006991D601ED91FC910190F081E02DC6018C
:1002C0000995892B79F7C501DF91CF911F910F9186
:1002D000FF90EF90DF90CF90BF90AF900895FC011A
:1002E000538D448D252F30E0842F90E0821B930B9B
:1002F000541710F0CF96089501970895FC01918D41
:10030000828D981761F0A28DAE0FBF2FB11D5D9643
:100310008C91928D9F5F9F73928F90E008958FEFE5
:100320009FEF0895FC01918D828D981731F0828D99
:10033000E80FF11D858D90E008958FEF9FEF0895F0
:10034000FC01918D228D892F90E0805C9F4F821B54
:1003500091098F739927089585E692E00E94A00184
:1003600021E0892B09F420E0822F089580E090E0BD
:10037000892B29F00E94AC0181110C940000089592
:10038000FC01A48DA80FB92FB11DA35ABF4F2C910A
:10039000848D90E001968F739927848FA689B78901
:1003A0002C93A089B1898C91837080648C93938DF8
:1003B000848D981306C00288F389E02D80818F7D9B
:1003C00080830895EF92FF920F931F93CF93DF9353
:1003D000EC0181E0888F9B8D8C8D98131AC0E88981
:1003E000F989808185FF15C09FB7F894EE89FF8950
:1003F0006083E889F98980818370806480839FBFEE
:1004000081E090E0DF91CF911F910F91FF90EF90ED
:100410000895F62E0B8D10E00F5F1F4F0F731127FD
:10042000E02E8C8D8E110CC00FB607FCFACFE88938
:10043000F989808185FFF5CFCE010E94C001F1CFFF
:10044000EB8DEC0FFD2FF11DE35AFF4FF0829FB7AC
:10045000F8940B8FEA89FB8980818062CFCFCF939C
:10046000DF93EC01888D8823B9F0AA89BB89E889DC
:10047000F9898C9185FD03C0808186FD0DC00FB682
:1004800007FCF7CF8C9185FFF2CF808185FFEDCF00
:10049000CE010E94C001E9CFDF91CF910895FC0108
:1004A00001900020E9F73197AF01481B590BBC01BF
:1004B00085E692E00C9442018F929F92AF92BF9298
:1004C0000F931F93CF93DF93CDB7DEB7A1970FB6EE
:1004D000F894DEBF0FBECDBF19A2423008F44AE047
:1004E0008E010F5D1F4F842E912CB12CA12CA501E4
:1004F00094010E94D004E62FB901CA01EA30F4F455
:10050000E05DD801EE938D01232B242B252B79F769
:1005100090E080E0109719F0CD010E944F02A19663
:100520000FB6F894DEBF0FBECDBFDF91CF911F9104
:100530000F91BF90AF909F908F900895E95CE1CFAD
:10054000CF93DF93D0E0C0E0009719F00E944F02F4
:10055000EC0184E191E00E944F028C0F9D1FDF911E
:10056000CF910895CF93DF93682F70E090E080E003
:100570004AE00E945C02EC0184E191E00E944F029B
:100580008C0F9D1FDF91CF9108951F920F920FB690
:100590000F9211242F933F938F939F93AF93BF9309
:1005A0008091610290916202A0916302B091640215
:1005B0003091600223E0230F2D3758F50196A11DDD
:1005C000B11D209360028093610290936202A09318
:1005D0006302B093640280915C0290915D02A091ED
:1005E0005E02B0915F020196A11DB11D80935C0275
:1005F00090935D02A0935E02B0935F02BF91AF91B2
:100600009F918F913F912F910F900FBE0F901F9050
:10061000189526E8230F0296A11DB11DD2CF1F9277
:100620000F920FB60F9211242F933F934F935F9326
:100630006F937F938F939F93AF93BF93EF93FF93AA
:1006400085E692E00E94C001FF91EF91BF91AF91CA
:100650009F918F917F916F915F914F913F912F91DA
:100660000F900FBE0F901F9018951F920F920FB60C
:100670000F9211242F938F939F93EF93FF93E09109
:100680007502F09176028081E0917B02F0917C020C
:1006900082FD1BC0908180917E028F5F8F732091BD
:1006A0007F02821741F0E0917E02F0E0EB59FD4FAE
:1006B000958F80937E02FF91EF919F918F912F9163
:1006C0000F900FBE0F901F9018958081F4CF1F924E
:1006D0000F920FB60F9211242F933F934F935F9376
:1006E0006F937F938F939F93AF93BF93CF93EF932A
:1006F000FF93CEB5809101018EBD809100018823CA
:1007000099F083E292E00E944F026C2F70E090E03B
:1007100080E040E10E945C028FE392E00E944F0281
:10072000809101010E94B202FF91EF91CF91BF91A0
:10073000AF919F918F917F916F915F914F913F9179
:100740002F910F900FBE0F901F901895CF93C82F29
:1007500080910001882379F08CE492E00E944F029E
:100760006C2F70E090E080E04AE00E945C0289E536
:1007700092E00E94A002C0930101809101018EBD10
:10078000CF9108952091000121110C94A0020895A9
:10079000789484B5826084BD84B5816084BD85B55C
:1007A000826085BD85B5816085BD80916E00816068
:1007B00080936E001092810080918100826080930E
:1007C0008100809181008160809381008091800010
:1007D0008160809380008091B10084608093B1003B
:1007E0008091B00081608093B00080917A00846035
:1007F00080937A0080917A00826080937A00809161
:100800007A00816080937A0080917A00806880937A
:100810007A001092C100E0917502F091760282E0B8
:100820008083E0917102F09172021082E091730274
:10083000F09174028FEC808310927D02E091790236
:10084000F0917A0286E08083E0917702F09178025D
:10085000808180618083E0917702F09178028081CD
:1008600088608083E0917702F091780280818068CF
:100870008083E0917702F091780280818F7D808380
:1008800087E191E00E94A00285E391E00E94A0022E
:1008900089E191E00E94A0028EE491E00E94A00212
:1008A00087E691E00E94A00283E891E00E94A00206
:1008B00061E08CE00E94110160E08BE00E94110178
:1008C00060E08DE00E94110160E08AE00E94110169
:1008D00080EC8CBD80EA91E00E94A00285EB91E063
:1008E0000E944F028CE00E94B20280EC91E00E94D4
:1008F0004F028BE00E94B2028BEC91E00E944F020B
:100900008DE00E94B20286ED91E00E944F028AE0E3
:100910000E94B20283E891E00E94A00281EE91E081
:100920000E94A0028DEF91E00E94A0020E94A3000D
:10093000C0E0D0E02097F1F30E94AC018823D1F30E
:100940000E940000F7CFE5E6F2E01382128288EE03
:1009500093E0A0E0B0E084839583A683B78386E02C
:1009600091E09183808385EC90E09587848784EC87
:1009700090E09787868780EC90E0918B808B81EC6C
:1009800090E0938B828B82EC90E0958B848B86EC4D
:1009900090E0978B868B118E128E138E148E089595
:1009A000A1E21A2EAA1BBB1BFD010DC0AA1FBB1F73
:1009B000EE1FFF1FA217B307E407F50720F0A21BE5
:1009C000B30BE40BF50B661F771F881F991F1A9452
:1009D00069F760957095809590959B01AC01BD017C
:1009E000CF010895EE0FFF1F0590F491E02D0994BB
:0409F000F894FFCFA9
:1009F400012A00000000E20142016F012F02A00160
:100A04007E0192010D0A000A0A3D3D3D3D3D3D3DFA
:100A14003D3D3D3D3D3D3D3D3D3D3D3D3D3D3D3D02
:100A24003D3D3D3D00536C65657047756172646979
:100A3400616E20536C6176652076312E3000444817
:100A44005431312054656D7065726174757265201E
:100A540053656E736F720053504920436F6D6D750B
:100A64006E69636174696F6E20496E746572666144
:100A74006365002D2D2D2D2D2D2D2D2D2D2D2D2D61
:100A84002D2D2D2D2D2D2D2D2D2D2D2D2D2D2D00BF
:100A94005350492050696E7320436F6E66696775C1
:100AA4007265643A004D49534F3A2050696E2000F4
:100AB4004D4F53493A2050696E200053434B3A201E
:100AC4002050696E200053533A20202050696E2034
:100AD400005374617274696E672073656E736F720C
:100AE4002072656164696E67732E2E2E0054656DE5
:100AF4007065726174757265732077696C6C2062BD
:100B04006520646973706C617965642062656C6FDB
:100B1400773A00535049207472616E736665723A75
:100B240020726563656976656420434D443D002CFD
:100B34002073656E742054454D503D004448543133
:0C0B44003120526561643A20004300003B
:00000001FF
