:100000000C9435000C945D000C945D000C945D0024
:100010000C945D000C945D000C945D000C945D00EC
:100020000C945D000C945D000C945D000C945D00DC
:100030000C945D000C945D000C945D000C945D00CC
:100040000C94E4030C945D000C9454040C942E0462
:100050000C945D000C945D000C945D000C945D00AC
:100060000C945D000C945D001B0511241FBECFEFA6
:10007000D8E0DEBFCDBF11E0A0E0B1E0E0EAFAE0F9
:1000800002C005900D92A033B107D9F721E0A0E39B
:10009000B1E001C01D92A63DB207E1F710E0C5E353
:1000A000D0E004C02197FE010E944805C433D10767
:1000B000C9F70E9486040C944E050C9400000F931F
:1000C0001F930FEF0AB904B928987DD003E351D0EC
:1000D0007AD002E34ED077D008E24BD074D00CE057
:1000E00048D001E046D06FD006E043D01F910F9179
:1000F00008950F93BF93082F3CD0BF910F9108959F
:100100000F93BF93082F46D0BF910F9108950F937F
:100110001F932F93BF93282F01E02BD054D000E8DA
:1001200028D004E537D005E635D00DE633D000E71A
:1001300031D00AE32FD000E22DD0022F1AE00ED0EA
:10014000005D28D0012F005D25D00FED23D003E402
:1001500021D0BF912F911F910F9108952F932227A6
:10016000011718F0011B2395FBCF102F022F2F91A1
:100170000895B02FB07FBBB92998289A1CD0289831
:100180001DD0B02FB295B07FBBB9289A14D0289853
:1001900015D00895B02FB07FBBB9299A289A0BD0FB
:1001A00028980CD0B02FB295B07FBBB9289A03D055
:1001B000289804D008950000000008954AE5FBDF68
:1001C0004A95E9F7089558E2F9DF5A95E9F7089555
:1001D00035D0FAD080E060E344E10ED186E068E1FA
:1001E00045E025E21DD10E945F0030D000E00030E4
:1001F00011F054D101C06CD0082F880F80E80E9404
:10020000790084E50E94800085E60E9480008DE6EA
:100210000E94800080E70E9480008AE30E948000A4
:1002200080E20E948000802F880F0E94870010D1FA
:1002300043D112E0B2D11A95E9F7D8CF239A249886
:10024000259A229A2A9A01E50CBD089581E00E9420
:1002500079009ED180E80E94790083E50E948000A9
:100260008CE60E94800085E60E94800085E60E9460
:10027000800080E70E94800087E40E94800085E77C
:100280000E94800081E60E94800082E70E94800038
:1002900084E60E94800089E60E94800081E60E9438
:1002A00080008EE60E94800080EC0E94790086E744
:1002B0000E94800081E30E9480008EE20E94800004
:1002C00080E30E94800014E068D11A95E9F7089550
:1002D0000F931F934F935F9343E02A9858E20000D7
:1002E000000000005A95D9F700E00EBD1DB517FFBC
:1002F000FDCF0EB52A9A023018F44A9571F709E13C
:1003000000930001802F5F914F911F910F910895ED
:100310003A9A3B9A429A439A0895429A439A4DD008
:1003200042984BD0439849D00895429846D0439A7A
:1003300044D0429A42D008950F931F9308E0182F9B
:10034000111F10F0429801C0429A37D0439A35D01D
:10035000439833D00A95A1F7429A2FD0439A2DD0D3
:100360003A982BD006B10470439827D03A9A802F40
:100370001F910F9108950F931F932F93282F10E033
:1003800008E03A981AD0439A18D0110F86B182FD2E
:100390001160439812D00A95A9F73A9A203011F0CB
:1003A000429A01C0429809D0439A07D0439805D099
:1003B000812F2F911F910F9108950F930AE0000054
:1003C0000A95E9F70F910895A3DFF7DFA6DF80ED27
:1003D000B3DF8FE0B1DFA1DF81EDAEDF81E0CBDF06
:1003E000082FA3DF0F7799DF80EDA6DF8FE0A4DF72
:1003F000802FA2DF9ADF08958F936F934F938DDF45
:1004000080ED9ADF80E098DF4F916F918F918F930D
:1004100093DF862F91DF842F8FDF87DF8F91089501
:100420008F936F934F932F9378DF80ED85DF83E079
:1004300083DF2F914F916F918F918F937DDF862F67
:100440007BDF842F79DF822F77DF6FDF8F91089535
:1004500064DF80ED71DF80E06FDF5FDF81ED6CDFF7
:1004600080E089DF8093010180E085DF80930201D5
:1004700080E081DF8093030180E07DDF80930401D1
:1004800080E079DF8093050180E075DF80930601CD
:1004900081E071DF8093070148DF08953EDF80ED42
:1004A0004BDF81E149DF39DF81ED46DF81E063DF4A
:1004B000082F3BDF802F08950F931F932F933F93B7
:1004C00080EC0E94790000910601102F12951F7098
:1004D0000F70812F80630E948000802F80630E94B4
:1004E00080008FE20E94800000910501102F12957C
:1004F0001F700F70812F80630E948000802F8063A7
:100500000E9480008FE20E94800000910701102F5E
:1005100012951F700F7082E30E94800080E30E949A
:100520008000812F80630E948000802F80630E9462
:10053000800080E20E94800000910301102F12953C
:100540001F700F70812F80630E948000802F806356
:100550000E9480008AE30E94800000910201102F17
:1005600012951F700F70812F80630E948000802F72
:1005700080630E9480003F912F911F910F910895F9
:100580000000000008954AE5FBDF4A95E9F7089569
:1005900058E2F9DF5A95E9F708954FEF5FEF64E10C
:1005A0006A95F1F75A95D9F74A95C1F70895AF9230
:1005B000BF92CF92DF92EF92FF920F931F93CF9350
:1005C000DF936C017B018B01040F151FEB015E01B2
:1005D000AE18BF08C017D10759F06991D601ED9147
:1005E000FC910190F081E02DC6010995892B79F7E6
:1005F000C501DF91CF911F910F91FF90EF90DF9098
:10060000CF90BF90AF900895FC01538D448D252F5E
:1006100030E0842F90E0821B930B541710F0CF969C
:10062000089501970895FC01918D828D981761F0CE
:10063000A28DAE0FBF2FB11D5D968C91928D9F5FE5
:100640009F73928F90E008958FEF9FEF0895FC01C4
:10065000918D828D981731F0828DE80FF11D858D77
:1006600090E008958FEF9FEF0895FC01918D228D0A
:10067000892F90E0805C9F4F821B91098F7399278F
:10068000089580E391E00E94350321E0892B09F46D
:1006900020E0822F089580E090E0892B29F00E94CD
:1006A000410381110C9400000895FC01A48DA80F52
:1006B000B92FB11DA35ABF4F2C91848D90E00196A4
:1006C0008F739927848FA689B7892C93A089B189C4
:1006D0008C91837080648C93938D848D981306C065
:1006E0000288F389E02D80818F7D80830895EF92C9
:1006F000FF920F931F93CF93DF93EC0181E0888FDC
:100700009B8D8C8D98131AC0E889F989808185FFAB
:1007100015C09FB7F894EE89FF896083E889F9894D
:1007200080818370806480839FBF81E090E0DF914F
:10073000CF911F910F91FF90EF900895F62E0B8DA2
:1007400010E00F5F1F4F0F731127E02E8C8D8E115D
:100750000CC00FB607FCFACFE889F989808185FFC4
:10076000F5CFCE010E945503F1CFEB8DEC0FFD2F9D
:10077000F11DE35AFF4FF0829FB7F8940B8FEA897F
:10078000FB8980818062CFCFCF93DF93EC01888D8E
:100790008823B9F0AA89BB89E889F9898C9185FDFC
:1007A00003C0808186FD0DC00FB607FCF7CF8C918A
:1007B00085FFF2CF808185FFEDCFCE010E945503EA
:1007C000E9CFDF91CF9108951F920F920FB60F924C
:1007D00011242F933F938F939F93AF93BF93809157
:1007E000D2019091D301A091D401B091D501309163
:1007F000D10123E0230F2D3758F50196A11DB11D1E
:100800002093D1018093D2019093D301A093D4017E
:10081000B093D5018091CD019091CE01A091CF01EF
:10082000B091D0010196A11DB11D8093CD0190938F
:10083000CE01A093CF01B093D001BF91AF919F9112
:100840008F913F912F910F900FBE0F901F90189591
:1008500026E8230F0296A11DB11DD2CF1F920F9241
:100860000FB60F9211242F933F934F935F936F9383
:100870007F938F939F93AF93BF93EF93FF9380E307
:1008800091E00E945503FF91EF91BF91AF919F912D
:100890008F917F916F915F914F913F912F910F9029
:1008A0000FBE0F901F9018951F920F920FB60F92C8
:1008B00011242F938F939F93EF93FF93E091400127
:1008C000F09141018081E0914601F091470182FD64
:1008D0001BC09081809149018F5F8F7320914A01E5
:1008E000821741F0E0914901F0E0E05DFE4F958F05
:1008F00080934901FF91EF919F918F912F910F90DC
:100900000FBE0F901F9018958081F4CF789484B516
:10091000826084BD84B5816084BD85B5826085BDFB
:1009200085B5816085BD80916E00816080936E0089
:10093000109281008091810082608093810080917B
:10094000810081608093810080918000816080932C
:1009500080008091B10084608093B1008091B000EC
:1009600081608093B00080917A00846080937A00E7
:1009700080917A00826080937A0080917A00816011
:1009800080937A0080917A00806880937A00109238
:10099000C100E0914001F091410182E08083E0914B
:1009A0003C01F0913D011082E0913E01F0913F0148
:1009B0008FEC808310924801E0914401F091450151
:1009C00086E08083E0914201F09143018081806163
:1009D0008083E0914201F0914301808188608083AF
:1009E000E0914201F0914301808180688083E09131
:1009F0004201F091430180818F7D808349E150E085
:100A000062E171E080E391E00E94D70242E050E0B1
:100A10006CE271E080E391E00E94D7020E94E8005E
:100A2000C0E0D0E02097F1F30E9441038823D1F386
:100A30000E940000F7CFE0E3F1E01382128288EE1B
:100A400093E0A0E0B0E084839583A683B78384E03D
:100A500091E09183808385EC90E09587848784EC96
:100A600090E09787868780EC90E0918B808B81EC7B
:100A700090E0938B828B82EC90E0958B848B86EC5C
:100A800090E0978B868B118E128E138E148E0895A4
:100A9000EE0FFF1F0590F491E02D0994F894FFCF1D
:100AA000000000007703D7020403C40335031303D7
:100AB0002703536C656570477561726469616E20C8
:100AC0005374617274696E672E2E2E000D0A000039
:00000001FF
