:100000000C945D000C9485000C9485000C94850084
:100010000C9485000C9485000C9485000C9485004C
:100020000C9485000C9485000C9485000C9485003C
:100030000C9485000C9485000C9485000C9485002C
:100040000C94F2040C9485000C9462050C943C050D
:100050000C9485000C9485000C9485000C9485000C
:100060000C9485000C9485000000000024002700FB
:100070002A0000000000250028002B0004040404CE
:100080000404040402020202020203030303030342
:10009000010204081020408001020408102001021F
:1000A00004081020000000080002010000030407FB
:1000B0000000000000000000A10911241FBECFEFC6
:1000C000D8E0DEBFCDBF25E0A0E3B5E001C01D92C2
:1000D000A53FB207E1F715E0A0E0B1E0E6E7F8E1FF
:1000E00002C005900D92A033B107D9F710E0CDE51D
:1000F000D0E004C02197FE010E94410ACC35D1070F
:10010000C9F70E9494050C94390C0C940000239AB2
:100110002498259A229A2A9A01E50CBD84D00FEFE3
:100120000AB904B9289829987ED03AD004E55DD060
:1001300005E65BD003E759D004E757D074D000C080
:1001400018D001E041D06AD0302F22273A3018F081
:100150003A502395FBCF022F40E3040F46D0032FE4
:1001600040E3040F42D000E240D003E43ED05BD035
:10017000E7CF2A9A53D043E02A9850D000E00EBD32
:100180001DB517FFFDCF0EB52A9A102F010F102FA6
:10019000010F083018F44A9579F70CE50695089593
:1001A00028983CD003E310D039D002E30DD036D0EC
:1001B00008E20AD033D00CE007D001E005D02ED001
:1001C00006E002D02BD00895B02FB07FBBB929989C
:1001D000289A1CD028981DD0B02FB295B07FBBB9FB
:1001E000289A14D0289815D00895B02FB07FBBB9A5
:1001F000299A289A0BD028980CD0B02FB295B07FAE
:10020000BBB9289A03D0289804D0089500000000B4
:1002100008954AE5FBDF4A95E9F7089558E2F9DFCA
:100220005A95E9F708954FEF5FEF64E16A95F1F7AA
:100230005A95D9F74A95C1F70895EEEAF0E024916E
:10024000EAE9F0E09491E6E8F0E0E491EE23C9F009
:10025000222339F0233001F1A8F4213019F12230A2
:1002600029F1F0E0EE0FFF1FEE58FF4FA591B4917A
:100270002FB7F894EC91811126C090959E239C9302
:100280002FBF08952730A9F02830C9F0243049F74E
:10029000209180002F7D03C0209180002F77209334
:1002A0008000DFCF24B52F7724BDDBCF24B52F7D91
:1002B000FBCF2091B0002F772093B000D2CF2091B8
:1002C000B0002F7DF9CF9E2BDACF90E0FC01E057F4
:1002D000FF4F249184589F4FFC018491882399F00B
:1002E00090E0880F991FFC01E859FF4FA591B49148
:1002F000FC01EE58FF4F859194918FB7F894EC91E3
:10030000E22BEC938FBF08953FB7F894809150058E
:1003100090915105A0915205B091530526B5A89B27
:1003200005C02F3F19F00196A11DB11D3FBFBA2F87
:10033000A92F982F8827BC01CD01620F711D811D47
:10034000911D42E0660F771F881F991F4A95D1F7CC
:1003500008958F929F92AF92BF92CF92DF92EF92C9
:10036000FF924B015C010E9484016B017C010E94A1
:1003700084016C197D098E099F09683E73408105CF
:100380009105A8F321E0821A9108A108B10888EE2E
:10039000C80E83E0D81EE11CF11C81149104A10455
:1003A000B10429F7FF90EF90DF90CF90BF90AF900E
:1003B0009F908F9008952FB7F89460914C0570919D
:1003C0004D0580914E0590914F052FBF0895AF9236
:1003D000BF92CF92DF92EF92FF920F931F93CF9332
:1003E000DF936C017B018B01040F151FEB015E0194
:1003F000AE18BF08C017D10759F06991D601ED9129
:10040000FC910190F081E02DC6010995892B79F7C7
:10041000C501DF91CF911F910F91FF90EF90DF9079
:10042000CF90BF90AF900895FC01538D448D252F40
:1004300030E0842F90E0821B930B541710F0CF967E
:10044000089501970895FC01918D828D981761F0B0
:10045000A28DAE0FBF2FB11D5D968C91928D9F5FC7
:100460009F73928F90E008958FEF9FEF0895FC01A6
:10047000918D828D981731F0828DE80FF11D858D59
:1004800090E008958FEF9FEF0895FC01918D228DEC
:10049000892F90E0805C9F4F821B91098F73992771
:1004A000089584E595E00E94450221E0892B09F436
:1004B00020E0822F089580E090E0892B29F00E94AF
:1004C000510281110C9400000895FC01A48DA80F25
:1004D000B92FB11DA35ABF4F2C91848D90E0019686
:1004E0008F739927848FA689B7892C93A089B189A6
:1004F0008C91837080648C93938D848D981306C047
:100500000288F389E02D80818F7D80830895EF92AA
:10051000FF920F931F93CF93DF93EC0181E0888FBD
:100520009B8D8C8D98131AC0E889F989808185FF8D
:1005300015C09FB7F894EE89FF896083E889F9892F
:1005400080818370806480839FBF81E090E0DF9131
:10055000CF911F910F91FF90EF900895F62E0B8D84
:1005600010E00F5F1F4F0F731127E02E8C8D8E113F
:100570000CC00FB607FCFACFE889F989808185FFA6
:10058000F5CFCE010E946502F1CFEB8DEC0FFD2F70
:10059000F11DE35AFF4FF0829FB7F8940B8FEA8961
:1005A000FB8980818062CFCFCF93DF93EC01888D70
:1005B0008823B9F0AA89BB89E889F9898C9185FDDE
:1005C00003C0808186FD0DC00FB607FCF7CF8C916C
:1005D00085FFF2CF808185FFEDCFCE010E946502BD
:1005E000E9CFDF91CF9108959FB7F89480913005BE
:1005F000882319F081508093300580913005811156
:1006000003C08CB58F7B8CBD9FBF0895CF93CFB7B0
:10061000F89480913005811123C0E6E8F0E08491E0
:10062000EAE9F0E09491E82FF0E0EE0FFF1FE859BF
:10063000FF4FA591B491EC91E92319F481E00E9458
:100640001D018AE00E9465018CB580618CBD8CB56E
:1006500080648CBD8DE00E9465018BE00E94650185
:10066000809130058F5F80933005CFBFCF91089583
:100670009CB59C7F282F2370922B9CBD9DB59E7F9F
:1006800086958695892B8DBD0895FC0101900020EB
:10069000E9F73197AF01481B590BBC0184E595E0A0
:1006A0000C94E7018F929F92AF92BF920F931F938A
:1006B000CF93DF93CDB7DEB7A1970FB6F894DEBF27
:1006C0000FBECDBF19A2423008F44AE08E010F5D83
:1006D0001F4F842E912CB12CA12CA50194010E94B6
:1006E0001F0AE62FB901CA01EA30F4F4E05DD8012F
:1006F000EE938D01232B242B252B79F790E080E0BE
:10070000109719F0CD010E944503A1960FB6F894F9
:10071000DEBF0FBECDBFDF91CF911F910F91BF9074
:10072000AF909F908F900895E95CE1CF462F682F9E
:1007300070E090E080E00C945203CF93DF930E942E
:100740004503EC0188E191E00E9445038C0F9D1F59
:10075000DF91CF910895CF93DF93FC0144815581C0
:100760006081718184E595E00E94E701EC0188E1F8
:1007700091E00E9445038C0F9D1FDF91CF9108955A
:100780000C944503CF93DF930E949603EC0188E11C
:1007900091E00E9445038C0F9D1FDF91CF9108953A
:1007A000CF92DF92EF92FF928BE191E00E949D0346
:1007B00089E391E00E94C0030E94DB01C0903F05E5
:1007C000D0904005E0904105F09042056C197D09FC
:1007D0008E099F0928EE33E040E050E00E941F0A96
:1007E000CA01B9014AE00E94520383E491E00E94E9
:1007F0009D038CE491E00E94C003609131057091EB
:10080000320580913305909134054AE00E945203ED
:1008100088E191E00E9445038DE591E00E94C003CC
:1008200060913505709136058091370590913805B6
:100830004AE00E9452038AE691E00E94C003C09001
:100840003105D0903205E0903305F0903405C114A5
:10085000D104E104F10409F477C020913505309109
:1008600036054091370550913805A4E6B0E00E9466
:10087000CE09A70196010E941F0ACA01B9014AE0E8
:100880000E9452038DE691E00E949D0380E791E073
:100890000E94C0036091390570913A0580913B0533
:1008A00090913C054AE00E94520388E191E00E9449
:1008B000450389E791E00E94C00360E170E0809108
:1008C0003D050E9496038AE691E00E94C0036AE01B
:1008D00070E080913D050E9496038EE691E00E94B3
:1008E0009D038FE891E00E94C00360E170E0809179
:1008F0003E050E9496038AE691E00E94C0036AE0EA
:1009000070E080913E050E9496038EE691E00E9481
:100910009D0386EA91E00E94C003609143057091B7
:10092000440580914505909146054AE00E94520396
:100930008BEB91E00E949D0384EC92E0FF90EF909E
:10094000DF90CF900C949D0386EF91E00E94C0034E
:1009500099CFEF92FF920F931F93CF93DF93EC0108
:100960007B018A0188819981009729F02A813B8146
:100970002417350788F4B8016F5F7F4F0E946C0B16
:10098000009791F0998388831B830A832C813D8192
:10099000232B11F4FC0110821D830C83B701888185
:1009A00099810E94320C0CC088819981009711F0C6
:1009B0000E94E30A198218821D821C821B821A82FD
:1009C000CE01DF91CF911F910F91FF90EF9008958D
:1009D000FB0101900020E9F73197AF01461B570B4F
:1009E0000C94A9041F920F920FB60F9211242F930B
:1009F0003F938F939F93AF93BF9380914C059091BA
:100A00004D05A0914E05B0914F0530914B0523E067
:100A1000230F2D3758F50196A11DB11D20934B05CD
:100A200080934C0590934D05A0934E05B0934F05D0
:100A30008091500590915105A0915205B0915305B8
:100A40000196A11DB11D8093500590935105A0936F
:100A50005205B0935305BF91AF919F918F913F91F4
:100A60002F910F900FBE0F901F90189526E8230F1F
:100A70000296A11DB11DD2CF1F920F920FB60F92F9
:100A800011242F933F934F935F936F937F938F9393
:100A90009F93AF93BF93EF93FF9384E595E00E94FC
:100AA0006502FF91EF91BF91AF919F918F917F91DF
:100AB0006F915F914F913F912F910F900FBE0F90CB
:100AC0001F9018951F920F920FB60F9211242F931B
:100AD0008F939F93EF93FF93E0916405F0916505E9
:100AE0008081E0916A05F0916B0582FD1BC09081C9
:100AF00080916D058F5F8F7320916E05821741F095
:100B0000E0916D05F0E0EC5AFA4F958F80936D05FA
:100B1000FF91EF919F918F912F910F900FBE0F90AA
:100B20001F9018958081F4CFCF93DF93CDB7DEB7B8
:100B30002A970FB6F894DEBF0FBECDBF789484B568
:100B4000826084BD84B5816084BD85B5826085BDC9
:100B500085B5816085BD80916E00816080936E0057
:100B60001092810080918100826080938100809149
:100B700081008160809381008091800081608093FA
:100B800080008091B10084608093B1008091B000BA
:100B900081608093B00080917A00846080937A00B5
:100BA00080917A00826080937A0080917A008160DF
:100BB00080937A0080917A00806880937A00109206
:100BC000C100E0916405F091650582E08083E091C9
:100BD0006005F09161051082E0916205F091630576
:100BE0008FEC808310926C05E0916805F0916905A7
:100BF00086E08083E0916605F091670580818061E1
:100C00008083E0916605F09167058081886080832C
:100C1000E0916605F0916705808180688083E091AE
:100C20006605F091670580818F7D808380EC91E07F
:100C30000E949D038EED91E00E949D0382EC91E065
:100C40000E949D0388EF91E00E949D0384E192E061
:100C50000E949D0383EC92E00E949D031092310557
:100C6000109232051092330510923405109235051A
:100C700010923605109237051092380510923905FA
:100C800010923A0510923B0510923C0510923D05DA
:100C900010923E050E94DB0160933F057093400572
:100CA00080934105909342051092430510924405AC
:100CB000109245051092460580E392E00E949D0344
:100CC00087E492E00E94C0036AE070E08BE00E943B
:100CD000C20382E592E00E94C0036AE070E08CE00B
:100CE0000E94C2038DE592E00E94C0036AE070E0BA
:100CF0008DE00E94C20388E692E00E94C0034AE0B1
:100D00006AE070E080E090E00E94520388E191E0A8
:100D10000E94450383EC92E00E949D0383E792E0EA
:100D20000E949D0389E992E00E949D038DEB92E071
:100D30000E949D0380EE92E00E949D038DEB92E065
:100D40000E949D030E94DB012B013C0133E2A32E94
:100D5000B12C4BE8842E992493940E94DB016419F2
:100D6000750986099709603177428105910508F078
:100D70007DC08AE00E94650181E00E941D010E9401
:100D8000060385E00E9438038DB58EB581E00E9490
:100D90001D01C5010197F1F780E00E941D01C4010A
:100DA0000197F1F71EBC0DB407FEFDCF1EB5C501BE
:100DB0000197F1F781E00E941D010E94F4020E9458
:100DC000DB016B017C01C418D508E608F7081A821C
:100DD00019821C821B821E821D8250E040E06AE163
:100DE00071E0CE0101960E94A9046FE073E0112327
:100DF00061F062E273E0113041F08EEF810F68E341
:100E000073E0823610F06AE473E0CE0101960E942E
:100E1000E8044AE0C701B6010E94520387E593E067
:100E20000E94C0036AE070E0812F0E9496038DE566
:100E300093E00E94C00360E170E0812F0E9496035E
:100E400089E593E00E94C003CE0101960E94AB03A6
:100E500064EF71E080E090E00E94A90189819A81AD
:100E6000009709F47ACF0E94E30A77CF83E693E0F4
:100E70000E949D0384E893E00E949D030E948700E6
:100E800083E2C82ED12C9BE8E92EFF24F39428EEB0
:100E9000822E23E0922EA12CB12C84E595E00E94B5
:100EA0004502181619065CF484E595E00E942302B9
:100EB000823709F4A5C06CF58D3609F498C10E94FB
:100EC000DB010091470510914805209149053091BB
:100ED0004A05601B710B820B930B693873418105C6
:100EE000910560F00E94DB0160934705709348050F
:100EF0008093490590934A050E94D00340E050E05A
:100F0000452B59F20E945102882339F20E940000B9
:100F1000C4CF833709F471C0843789F686E294E040
:100F20000E949D038AE00E94650181E00E941D01EC
:100F30000E94060381E00E94380380913105909160
:100F40003205A0913305B09134050196A11DB11D64
:100F50008093310590933205A0933305B093340507
:100F600010923D0503E010E080E00E941D01C701E2
:100F70000197F1F71EBC00000DB407FEFDCF7EB453
:100F800081E00E941D0183EC90E00197F1F741E0C0
:100F9000471508F409C165E070E080E090E00E9428
:100FA000A9010150110901F780E070923E058823E4
:100FB00009F4FCC08091350590913605A091370564
:100FC000B09138050196A11DB11D80933505909310
:100FD0003605A0933705B093380583EF93E00E9460
:100FE000C0036AE070E0872D0E94960381E094E0E0
:100FF0000E949D030E94F40262CF0E94D0035FCF43
:101000008CE993E00E949D038AE00E94650181E0E3
:101010000E941D010E94060385E00E943803809112
:10102000310590913205A0913305B09134050196B8
:10103000A11DB11D8093310590933205A093330516
:10104000B093340510923D0503E010E08DB58EB5E8
:1010500081E00E941D01C6010197F1F780E00E9426
:101060001D01C7010197F1F70E9484012B013C018A
:101070001EBC0DB407FEFDCF3EB40E94840164196E
:101080007509860997096093430570934405809319
:10109000450590934605C6010197F1F781E00E944E
:1010A0001D018EEF830D823650F065E070E080E028
:1010B00090E00E94A9010150110909F0C7CF3092B8
:1010C0003E0587EB93E00E94C00360E170E08091F1
:1010D0003D050E94C20388EC93E00E94C00360E1DA
:1010E00070E0832D0E9496038AE691E00E94C0037F
:1010F0006AE070E0832D0E9496038EE691E00E94E4
:101100009D038AED93E00E94C003609143057091B6
:10111000440580914505909146054AE00E9452039E
:101120008BEB91E00E949D0331E0331538F58091FF
:10113000350590913605A0913705B0913805019697
:10114000A11DB11D8093350590933605A0933705F9
:10115000B09338058AEE93E00E94C0036AE070E025
:10116000832D0E94960381E094E00E949D030E94DB
:10117000F40282EC91E00E949D03A1CE809139059A
:1011800090913A05A0913B05B0913C050196A11DB7
:10119000B11D8093390590933A05A0933B05B09318
:1011A0003C0585E094E0E1CF81E0FFCE80913905F8
:1011B00090913A05A0913B05B0913C050196A11D87
:1011C000B11D8093390590933A05A0933B05B093E8
:1011D0003C0588E494E00E949D0380E794E00E942F
:1011E000C0036AE070E0872D0E94C20303CF86E847
:1011F00094E00E949D0389EA94E00E949D0386EC9E
:1012000094E00E949D038DEB92E00E949D0381EE8D
:1012100094E00E949D038DEB92E00E949D030E944A
:10122000DB016F83788789879A8784E595E00E9440
:1012300045021816190654F484E595E00E9423022D
:101240008137910519F48FE095E095CF8AE00E94EF
:10125000650181E00E941D010E94060381E00E9459
:10126000380380E00E941D01C7010197F1F71EBC01
:1012700000000DB407FEFDCF1EB581E00E941D01E8
:101280000E94F4020E94DB012F81388549855A852E
:10129000621B730B840B950BA50194010E941F0A1E
:1012A00029013A011A8219821C821B821E821D8228
:1012B00050E040E06AE171E0CE0101960E94A9048D
:1012C0006FE073E0112361F062E273E0113041F0EE
:1012D0008EEF810F68E373E0823610F06AE473E00A
:1012E000CE0101960E94E8044AE0C301B2010E94C7
:1012F000520388E593E00E94C0036AE070E0812F0A
:101300000E9496038DE593E00E94C00360E170E0C7
:10131000812F0E94960389E593E00E94C003CE01CD
:1013200001960E94AB0368EE73E080E090E00E94BB
:10133000A90189819A81009709F477CF0E94E30A75
:1013400074CFE4E5F5E01382128288EE93E0A0E02A
:10135000B0E084839583A683B7838AE091E091838C
:10136000808385EC90E09587848784EC90E0978774
:10137000868780EC90E0918B808B81EC90E0938B62
:10138000828B82EC90E0958B848B86EC90E0978B3F
:10139000868B118E128E138E148E08950E94100A61
:1013A000A59F900DB49F900DA49F800D911D1124B9
:1013B00008952F923F924F925F926F927F928F92F9
:1013C0009F92AF92BF92CF92DF92EF92FF920F93D4
:1013D0001F93CF93DF93CDB7DEB7CA1BDB0B0FB6DE
:1013E000F894DEBF0FBECDBF09942A88398848889B
:1013F0005F846E847D848C849B84AA84B984C88431
:10140000DF80EE80FD800C811B81AA81B981CE0F27
:10141000D11D0FB6F894DEBF0FBECDBFED0108950C
:10142000A29FB001B39FC001A39F700D811D112425
:10143000911DB29F700D811D1124911D0895A1E28F
:101440001A2EAA1BBB1BFD010DC0AA1FBB1FEE1F3E
:10145000FF1FA217B307E407F50720F0A21BB30B89
:10146000E40BF50B661F771F881F991F1A9469F705
:1014700060957095809590959B01AC01BD01CF0161
:101480000895EE0FFF1F0590F491E02D09940F933E
:101490001F93CF93DF938230910510F482E090E0A8
:1014A000E091F305F091F40530E020E0B0E0A0E039
:1014B000309799F42115310509F44AC0281B390BDE
:1014C00024303105D8F58A819B816115710589F138
:1014D000FB0193838283FE0111C04081518102810F
:1014E000138148175907E0F04817590799F41097E6
:1014F00061F012960C93129713961C933296CF01BB
:10150000DF91CF911F910F9108950093F3051093F0
:10151000F405F4CF2115310551F04217530738F087
:10152000A901DB019A01BD01DF01F801C1CFEF0183
:10153000F9CF9093F4058093F305CDCFFE01E20F30
:10154000F31F819391932250310939832883D7CF98
:101550002091F1053091F205232B41F420910201F5
:10156000309103013093F2052093F10520910001A1
:10157000309101012115310541F42DB73EB740915D
:10158000040150910501241B350BE091F105F09108
:10159000F205E217F307A0F42E1B3F0B28173907BB
:1015A00078F0AC014E5F5F4F2417350748F04E0FBF
:1015B0005F1F5093F2054093F105819391939FCF64
:1015C000F0E0E0E09CCFCF93DF930097E9F0FC01DF
:1015D000329713821282A091F305B091F405ED01C8
:1015E00030E020E01097A1F420813181820F931F19
:1015F0002091F1053091F2052817390709F061C0F3
:10160000F093F205E093F105DF91CF910895EA019F
:10161000CE17DF07E8F54A815B819E014115510530
:10162000B1F7E901FB83EA8349915991C40FD51FB2
:10163000EC17FD0761F4808191810296840F951F5C
:10164000E90199838883828193819B838A83F0E077
:10165000E0E012968D919C9113970097B9F52D912A
:101660003C911197CD010296820F931F2091F105B5
:101670003091F2052817390739F6309751F5109255
:10168000F4051092F305B093F205A093F105BCCFD9
:10169000D383C28340815181840F951FC817D90716
:1016A00061F44E5F5F4F88819981480F591F5183C4
:1016B00040838A819B81938382832115310509F0C0
:1016C000B0CFF093F405E093F3059ECFFD01DC016C
:1016D000C0CF13821282D7CFB0E0A0E0E2E7FBE0F8
:1016E0000C94DB098C01009751F4CB010E94470A4E
:1016F0008C01C801CDB7DEB7E0E10C94F709FC011D
:10170000E60FF71F9C0122503109E217F30708F496
:101710009DC0D901CD91DC911197C617D70798F0DC
:10172000C530D10530F3CE0104978617970708F32B
:10173000C61BD70B2297C193D1936D937C93CF0196
:101740000E94E30AD6CF5B01AC1ABD0A4C018C0E95
:101750009D1EA091F305B091F405512C412CF12C64
:10176000E12C109731F58091F1059091F2058815E3
:10177000990509F05CC04616570608F058C08091DC
:10178000000190910101009741F48DB79EB74091FF
:10179000040150910501841B950BE817F90708F027
:1017A00055C0F093F205E093F105F9017183608370
:1017B000A0CF8D919C91119712966C9012971396D1
:1017C0007C901397A815B90559F56C0142E0C40E39
:1017D000D11CCA14DB0420F1AC014A195B09DA01FF
:1017E0001296159780F06282738251834083D901EB
:1017F0006D937C93E114F10471F0D7011396FC937F
:10180000EE93129776CF22968C0F9D1FF90191834C
:101810008083F301EFCFF093F405E093F30569CFF4
:101820004816590608F42C017D01D3019ACFCB014B
:101830000E94470A7C01009749F0AE01B8010E945E
:10184000290CC8010E94E30A870153CF10E000E091
:1018500050CFFB01DC0102C001900D92415050407D
:10186000D8F70895FB01DC0101900D920020E1F70B
:061870000895F894FFCF7B
:101876000000F5058000000000008702E701140261
:10188600D4024502230237020D0A000A2D2D2D200F
:1018960053504920446562756720537461746973B7
:1018A60074696373202D2D2D0052756E74696D65F4
:1018B6003A2000207365636F6E647300546F746121
:1018C6006C2052657175657374733A2000537563A5
:1018D6006365737366756C3A20002028002529001D
:1018E6004661696C65643A20004C61737420436FED
:1018F6006D6D616E642053656E743A203078004CCD
:10190600617374204461746120526563656976650C
:10191600643A203078004C61737420526573706F9E
:101926006E73652054696D653A200020CEBC730045
:101936000A0A3D3D3D3D3D3D3D3D3D3D3D3D3D3D37
:101946003D3D3D3D3D3D3D3D3D3D3D3D3D00536CB9
:10195600656570477561726469616E204D61737467
:1019660065722076312E3000535049204D617374D4
:101976006572202D204C434420436F6E74726F6C49
:101986006C65720053504920446562756720496E44
:101996007465726661636520456E61626C6564009C
:1019A6005350492050696E20436F6E6669677572A1
:1019B6006174696F6E3A004D4F53493A2050696E13
:1019C60020004D49534F3A2050696E200053434B37
:1019D6003A202050696E200053533A202020506947
:1019E6006E20000A3D3D3D204155544F2D53544134
:1019F6005254494E4720535049204D4F4E49544F5B
:101A060052494E47203D3D3D0043617074757269F1
:101A16006E67203130207365636F6E6473206F6666
:101A26002053504920646174612E2E2E002D2D2DD9
:101A36002D2D2D2D2D2D2D2D2D2D2D2D2D2D2D2DD0
:101A46002D2D2D2D2D2D2D2D2D2D2D2D2D2D2D00ED
:101A560054696D6520286D7329207C2056616C754C
:101A660065202864656329207C2056616C75652095
:101A76002868657829207C20537461747573004545
:101A860052524F523A204E6F20726573706F6E73CA
:101A960065005741524E494E473A20496E76616C71
:101AA600696420646174610056616C6964207465C0
:101AB6006D706572617475726500556E6B6E6F77C9
:101AC6006E2064617461006D73097C2000097C20BE
:101AD6003078000A3D3D3D20535049204D6F6E69D8
:101AE600746F72696E6720436F6D706C65746520E4
:101AF6003D3D3D005374617274696E67206D616986
:101B06006E2073797374656D2E2E2E000A3D3D3D51
:101B160020535049205472616E7366657220546575
:101B26007374203D3D3D00436F6D6D616E6420739F
:101B3600656E743A20307800446174612072656382
:101B460065697665643A20307800526573706F6E09
:101B560073652074696D653A2000535543434553B8
:101B660053212054656D70657261747572653A20F3
:101B760000C2B043004552524F523A20496E766138
:101B86006C69642074656D70657261747572652028
:101B960076616C75650052657175657374696E67FB
:101BA6002074656D70657261747572652072656109
:101BB60064696E672E2E2E004661696C656420741A
:101BC6006F206765742076616C69642074656D703A
:101BD600657261747572652072656164696E67000D
:101BE6004C6173742076616C7565207265636569F6
:101BF6007665643A20000A3D3D3D20537461727457
:101C0600696E67205350492044617461204D6F6EA0
:101C160069746F72203D3D3D0050726573732027D5
:101C2600712720746F2071756974206D6F6E6974E9
:101C36006F72696E670053616D706C696E672065BF
:101C4600766572792031207365636F6E642E2E2E51
:101C56000054696D6520287329207C2056616C75B7
:101C660065202864656329207C2056616C75652093
:101C76002868657829207C20537461747573000A7E
:101C86003D3D3D20535049204D6F6E69746F72691A
:101C96006E672053746F70706564203D3D3D000093
:00000001FF
