:100000000C9434000C943E000C943E000C943E0082
:100010000C943E000C943E000C943E000C943E0068
:100020000C943E000C943E000C943E000C943E0058
:100030000C943E000C943E000C943E000C943E0048
:100040000C943E000C943E000C943E000C943E0038
:100050000C943E000C943E000C943E000C943E0028
:100060000C943E000C943E0011241FBECFEFD8E04C
:10007000DEBFCDBF0E9440000C948E000C940000A7
:1000800001E007B9409832D0219A299825D0299AC1
:1000900021981999FECF199BFECF1999FECF0CD04C
:1000A0000BD00AD0022F08D007D00A3108F002C0C6
:1000B000409AE9CF4098E7CF18E02227199BFECF5E
:1000C0001FD0199B03C00894221F01C0220F199949
:1000D000FECF1A9599F708954FEF52ED62E06A95B9
:1000E000F1F75A95D9F74A95C1F708954FEF5FEFA9
:1000F00064EA6A95F1F75A95D9F74A95C1F70895D8
:10010000772776BD74E677BD7AE075BD75B371FF6C
:10011000FDCF772775BD72E075BB0895F894FFCFCA
:00000001FF
