:100000000C9434000C9446000C9446000C9446006A
:100010000C9446000C9446000C9446000C94460048
:100020000C9446000C9446000C9446000C94460038
:100030000C9446000C9446000C9446000C94460028
:100040000C94D9000C9446000C9446000C94460085
:100050000C9446000C9446000C9446000C94460008
:100060000C9446000C94460011241FBECFEFD8E03C
:10007000DEBFCDBF21E0A0E0B1E001C01D92A930FC
:10008000B207E1F70E9423010C946F010C94000069
:10009000239A2498259A229A2A9A01E50CBD7FD0AA
:1000A0000FEF0AB904B92898299879D035D004E51A
:1000B00058D005E656D003E754D004E752D06FD0AD
:1000C00000C018D001E03CD065D0302F22273A3054
:1000D00018F03A502395FBCF022F40E3040F41D094
:1000E000032F40E3040F3DD000E23BD003E439D0BE
:1000F00056D0E7CF2A9A4ED043E02A984BD000E062
:100100000EBD1DB517FFFDCF0EB52A9A023018F4AB
:100110004A9599F707E1089528983CD003E310D059
:1001200039D002E30DD036D008E20AD033D00CE04B
:1001300007D001E005D02ED006E002D02BD00895E4
:10014000B02FB07FBBB92998289A1CD028981DD011
:10015000B02FB295B07FBBB9289A14D0289815D08B
:100160000895B02FB07FBBB9299A289A0BD0289850
:100170000CD0B02FB295B07FBBB9289A03D0289885
:1001800004D008950000000008954AE5FBDF4A9579
:10019000E9F7089558E2F9DF5A95E9F708954FEF26
:1001A0005FEF64E16A95F1F75A95D9F74A95C1F77F
:1001B00008951F920F920FB60F9211242F933F9321
:1001C0008F939F93AF93BF93809105019091060108
:1001D000A0910701B09108013091040123E0230FA1
:1001E0002D3758F50196A11DB11D20930401809370
:1001F000050190930601A0930701B0930801809137
:10020000000190910101A0910201B09103010196BA
:10021000A11DB11D8093000190930101A0930201E3
:10022000B0930301BF91AF919F918F913F912F9117
:100230000F900FBE0F901F90189526E8230F02967F
:10024000A11DB11DD2CF789484B5826084BD84B5E0
:10025000816084BD85B5826085BD85B5816085BDC1
:1002600080916E00816080936E0010928100809179
:100270008100826080938100809181008160809301
:100280008100809180008160809380008091B10026
:1002900084608093B1008091B00081608093B00051
:1002A00080917A00846080937A0080917A008260E5
:1002B00080937A0080917A00816080937A008091A7
:1002C0007A00806880937A001092C1000E944800F2
:1002D000C0E0D0E02097F1F30E940000FBCFF8943B
:0202E000FFCF4E
:00000001FF
